{
  "_format": "hh-sol-artifact-1",
  "contractName": "TodoList",
  "sourceName": "contracts/TodoList.sol",
  "abi": [
    {
      "inputs": [],
      "stateMutability": "nonpayable",
      "type": "constructor"
    },
    {
      "anonymous": false,
      "inputs": [
        {
          "indexed": false,
          "internalType": "uint256",
          "name": "id",
          "type": "uint256"
        },
        {
          "indexed": false,
          "internalType": "string",
          "name": "taskname",
          "type": "string"
        },
        {
          "indexed": false,
          "internalType": "bool",
          "name": "status",
          "type": "bool"
        }
      ],
      "name": "TaskCreated",
      "type": "event"
    },
    {
      "anonymous": false,
      "inputs": [
        {
          "indexed": false,
          "internalType": "uint256",
          "name": "id",
          "type": "uint256"
        },
        {
          "indexed": false,
          "internalType": "bool",
          "name": "status",
          "type": "bool"
        }
      ],
      "name": "TaskStatus",
      "type": "event"
    },
    {
      "inputs": [
        {
          "internalType": "string",
          "name": "_taskname",
          "type": "string"
        }
      ],
      "name": "createTask",
      "outputs": [],
      "stateMutability": "nonpayable",
      "type": "function"
    },
    {
      "inputs": [],
      "name": "taskCount",
      "outputs": [
        {
          "internalType": "uint256",
          "name": "",
          "type": "uint256"
        }
      ],
      "stateMutability": "view",
      "type": "function"
    },
    {
      "inputs": [
        {
          "internalType": "uint256",
          "name": "",
          "type": "uint256"
        }
      ],
      "name": "tasks",
      "outputs": [
        {
          "internalType": "uint256",
          "name": "id",
          "type": "uint256"
        },
        {
          "internalType": "string",
          "name": "taskname",
          "type": "string"
        },
        {
          "internalType": "bool",
          "name": "status",
          "type": "bool"
        }
      ],
      "stateMutability": "view",
      "type": "function"
    },
    {
      "inputs": [
        {
          "internalType": "uint256",
          "name": "_id",
          "type": "uint256"
        }
      ],
      "name": "toggleStatus",
      "outputs": [],
      "stateMutability": "nonpayable",
      "type": "function"
    }
  ],
  "bytecode": "0x60806040526000805534801561001457600080fd5b506100596040518060400160405280601281526020017f546f646f204c697374205475746f7269616c000000000000000000000000000081525061005e60201b60201c565b6105b3565b60008081548092919061007090610166565b9190505550604051806060016040528060005481526020018281526020016000151581525060016000805481526020019081526020016000206000820151816000015560208201518160010190816100c891906103f4565b5060408201518160020160006101000a81548160ff0219169083151502179055509050507f05d0fb833127fc08168556d0e7ca9554fc3f6bc843b3b7d2bf1c35aea6bab66060005482600060405161012293929190610575565b60405180910390a150565b7f4e487b7100000000000000000000000000000000000000000000000000000000600052601160045260246000fd5b6000819050919050565b60006101718261015c565b91507fffffffffffffffffffffffffffffffffffffffffffffffffffffffffffffffff82036101a3576101a261012d565b5b600182019050919050565b600081519050919050565b7f4e487b7100000000000000000000000000000000000000000000000000000000600052604160045260246000fd5b7f4e487b7100000000000000000000000000000000000000000000000000000000600052602260045260246000fd5b6000600282049050600182168061022f57607f821691505b602082108103610242576102416101e8565b5b50919050565b60008190508160005260206000209050919050565b60006020601f8301049050919050565b600082821b905092915050565b6000600883026102aa7fffffffffffffffffffffffffffffffffffffffffffffffffffffffffffffffff8261026d565b6102b4868361026d565b95508019841693508086168417925050509392505050565b6000819050919050565b60006102f16102ec6102e78461015c565b6102cc565b61015c565b9050919050565b6000819050919050565b61030b836102d6565b61031f610317826102f8565b84845461027a565b825550505050565b600090565b610334610327565b61033f818484610302565b505050565b5b818110156103635761035860008261032c565b600181019050610345565b5050565b601f8211156103a85761037981610248565b6103828461025d565b81016020851015610391578190505b6103a561039d8561025d565b830182610344565b50505b505050565b600082821c905092915050565b60006103cb600019846008026103ad565b1980831691505092915050565b60006103e483836103ba565b9150826002028217905092915050565b6103fd826101ae565b67ffffffffffffffff811115610416576104156101b9565b5b6104208254610217565b61042b828285610367565b600060209050601f83116001811461045e576000841561044c578287015190505b61045685826103d8565b8655506104be565b601f19841661046c86610248565b60005b828110156104945784890151825560018201915060208501945060208101905061046f565b868310156104b157848901516104ad601f8916826103ba565b8355505b6001600288020188555050505b505050505050565b6104cf8161015c565b82525050565b600082825260208201905092915050565b60005b838110156105045780820151818401526020810190506104e9565b60008484015250505050565b6000601f19601f8301169050919050565b600061052c826101ae565b61053681856104d5565b93506105468185602086016104e6565b61054f81610510565b840191505092915050565b60008115159050919050565b61056f8161055a565b82525050565b600060608201905061058a60008301866104c6565b818103602083015261059c8185610521565b90506105ab6040830184610566565b949350505050565b610aaf806105c26000396000f3fe608060405234801561001057600080fd5b506004361061004c5760003560e01c8063111002aa1461005157806351db2e761461006d5780638d97767214610089578063b6cb58a5146100bb575b600080fd5b61006b6004803603810190610066919061054d565b6100d9565b005b610087600480360381019061008291906105cc565b6101a8565b005b6100a3600480360381019061009e91906105cc565b61032e565b6040516100b2939291906106a2565b60405180910390f35b6100c36103ed565b6040516100d091906106e0565b60405180910390f35b6000808154809291906100eb9061072a565b919050555060405180606001604052806000548152602001828152602001600015158152506001600080548152602001908152602001600020600082015181600001556020820151816001019081610143919061097e565b5060408201518160020160006101000a81548160ff0219169083151502179055509050507f05d0fb833127fc08168556d0e7ca9554fc3f6bc843b3b7d2bf1c35aea6bab66060005482600060405161019d939291906106a2565b60405180910390a150565b600060016000838152602001908152602001600020604051806060016040529081600082015481526020016001820180546101e2906107a1565b80601f016020809104026020016040519081016040528092919081815260200182805461020e906107a1565b801561025b5780601f106102305761010080835404028352916020019161025b565b820191906000526020600020905b81548152906001019060200180831161023e57829003601f168201915b505050505081526020016002820160009054906101000a900460ff161515151581525050905080604001511581604001901515908115158152505080600160008481526020019081526020016000206000820151816000015560208201518160010190816102c9919061097e565b5060408201518160020160006101000a81548160ff0219169083151502179055509050507faccf26a040a80e6a25119cb39da293ff807081080159d2c6db82f9c60077ea4c828260400151604051610322929190610a50565b60405180910390a15050565b6001602052806000526040600020600091509050806000015490806001018054610357906107a1565b80601f0160208091040260200160405190810160405280929190818152602001828054610383906107a1565b80156103d05780601f106103a5576101008083540402835291602001916103d0565b820191906000526020600020905b8154815290600101906020018083116103b357829003601f168201915b5050505050908060020160009054906101000a900460ff16905083565b60005481565b6000604051905090565b600080fd5b600080fd5b600080fd5b600080fd5b6000601f19601f8301169050919050565b7f4e487b7100000000000000000000000000000000000000000000000000000000600052604160045260246000fd5b61045a82610411565b810181811067ffffffffffffffff8211171561047957610478610422565b5b80604052505050565b600061048c6103f3565b90506104988282610451565b919050565b600067ffffffffffffffff8211156104b8576104b7610422565b5b6104c182610411565b9050602081019050919050565b82818337600083830152505050565b60006104f06104eb8461049d565b610482565b90508281526020810184848401111561050c5761050b61040c565b5b6105178482856104ce565b509392505050565b600082601f83011261053457610533610407565b5b81356105448482602086016104dd565b91505092915050565b600060208284031215610563576105626103fd565b5b600082013567ffffffffffffffff81111561058157610580610402565b5b61058d8482850161051f565b91505092915050565b6000819050919050565b6105a981610596565b81146105b457600080fd5b50565b6000813590506105c6816105a0565b92915050565b6000602082840312156105e2576105e16103fd565b5b60006105f0848285016105b7565b91505092915050565b61060281610596565b82525050565b600081519050919050565b600082825260208201905092915050565b60005b83811015610642578082015181840152602081019050610627565b60008484015250505050565b600061065982610608565b6106638185610613565b9350610673818560208601610624565b61067c81610411565b840191505092915050565b60008115159050919050565b61069c81610687565b82525050565b60006060820190506106b760008301866105f9565b81810360208301526106c9818561064e565b90506106d86040830184610693565b949350505050565b60006020820190506106f560008301846105f9565b92915050565b7f4e487b7100000000000000000000000000000000000000000000000000000000600052601160045260246000fd5b600061073582610596565b91507fffffffffffffffffffffffffffffffffffffffffffffffffffffffffffffffff8203610767576107666106fb565b5b600182019050919050565b7f4e487b7100000000000000000000000000000000000000000000000000000000600052602260045260246000fd5b600060028204905060018216806107b957607f821691505b6020821081036107cc576107cb610772565b5b50919050565b60008190508160005260206000209050919050565b60006020601f8301049050919050565b600082821b905092915050565b6000600883026108347fffffffffffffffffffffffffffffffffffffffffffffffffffffffffffffffff826107f7565b61083e86836107f7565b95508019841693508086168417925050509392505050565b6000819050919050565b600061087b61087661087184610596565b610856565b610596565b9050919050565b6000819050919050565b61089583610860565b6108a96108a182610882565b848454610804565b825550505050565b600090565b6108be6108b1565b6108c981848461088c565b505050565b5b818110156108ed576108e26000826108b6565b6001810190506108cf565b5050565b601f82111561093257610903816107d2565b61090c846107e7565b8101602085101561091b578190505b61092f610927856107e7565b8301826108ce565b50505b505050565b600082821c905092915050565b600061095560001984600802610937565b1980831691505092915050565b600061096e8383610944565b9150826002028217905092915050565b61098782610608565b67ffffffffffffffff8111156109a05761099f610422565b5b6109aa82546107a1565b6109b58282856108f1565b600060209050601f8311600181146109e857600084156109d6578287015190505b6109e08582610962565b865550610a48565b601f1984166109f6866107d2565b60005b82811015610a1e578489015182556001820191506020850194506020810190506109f9565b86831015610a3b5784890151610a37601f891682610944565b8355505b6001600288020188555050505b505050505050565b6000604082019050610a6560008301856105f9565b610a726020830184610693565b939250505056fea2646970667358221220482df1d97dda15ea951812c91e9780526111803d6db8523e6f863e47d996552864736f6c634300081b0033",
  "linkReferences": {},
  "deployedLinkReferences": {}
}